{
  "_format": "hh-sol-artifact-1",
  "contractName": "GiftDistributor",
  "sourceName": "contracts/GiftDistributor.sol",
  "abi": [
    {
      "anonymous": false,
      "inputs": [
        {
          "indexed": true,
          "internalType": "address",
          "name": "account",
          "type": "address"
        },
        {
          "indexed": true,
          "internalType": "address",
          "name": "operator",
          "type": "address"
        },
        {
          "indexed": false,
          "internalType": "bool",
          "name": "approved",
          "type": "bool"
        }
      ],
      "name": "ApprovalForAll",
      "type": "event"
    },
    {
      "anonymous": false,
      "inputs": [
        {
          "indexed": true,
          "internalType": "address",
          "name": "account",
          "type": "address"
        },
        {
          "indexed": false,
          "internalType": "uint256",
          "name": "_dropAmount",
          "type": "uint256"
        }
      ],
      "name": "Claimed",
      "type": "event"
    },
    {
      "anonymous": false,
      "inputs": [
        {
          "indexed": false,
          "internalType": "uint8",
          "name": "version",
          "type": "uint8"
        }
      ],
      "name": "Initialized",
      "type": "event"
    },
    {
      "anonymous": false,
      "inputs": [
        {
          "indexed": true,
          "internalType": "address",
          "name": "operator",
          "type": "address"
        },
        {
          "indexed": true,
          "internalType": "address",
          "name": "from",
          "type": "address"
        },
        {
          "indexed": true,
          "internalType": "address",
          "name": "to",
          "type": "address"
        },
        {
          "indexed": false,
          "internalType": "uint256[]",
          "name": "ids",
          "type": "uint256[]"
        },
        {
          "indexed": false,
          "internalType": "uint256[]",
          "name": "values",
          "type": "uint256[]"
        }
      ],
      "name": "TransferBatch",
      "type": "event"
    },
    {
      "anonymous": false,
      "inputs": [
        {
          "indexed": true,
          "internalType": "address",
          "name": "operator",
          "type": "address"
        },
        {
          "indexed": true,
          "internalType": "address",
          "name": "from",
          "type": "address"
        },
        {
          "indexed": true,
          "internalType": "address",
          "name": "to",
          "type": "address"
        },
        {
          "indexed": false,
          "internalType": "uint256",
          "name": "id",
          "type": "uint256"
        },
        {
          "indexed": false,
          "internalType": "uint256",
          "name": "value",
          "type": "uint256"
        }
      ],
      "name": "TransferSingle",
      "type": "event"
    },
    {
      "anonymous": false,
      "inputs": [
        {
          "indexed": false,
          "internalType": "string",
          "name": "value",
          "type": "string"
        },
        {
          "indexed": true,
          "internalType": "uint256",
          "name": "id",
          "type": "uint256"
        }
      ],
      "name": "URI",
      "type": "event"
    },
    {
      "inputs": [
        {
          "internalType": "address",
          "name": "account",
          "type": "address"
        },
        {
          "internalType": "uint256",
          "name": "id",
          "type": "uint256"
        }
      ],
      "name": "balanceOf",
      "outputs": [
        {
          "internalType": "uint256",
          "name": "",
          "type": "uint256"
        }
      ],
      "stateMutability": "view",
      "type": "function"
    },
    {
      "inputs": [
        {
          "internalType": "address[]",
          "name": "accounts",
          "type": "address[]"
        },
        {
          "internalType": "uint256[]",
          "name": "ids",
          "type": "uint256[]"
        }
      ],
      "name": "balanceOfBatch",
      "outputs": [
        {
          "internalType": "uint256[]",
          "name": "",
          "type": "uint256[]"
        }
      ],
      "stateMutability": "view",
      "type": "function"
    },
    {
      "inputs": [
        {
          "internalType": "bytes32[]",
          "name": "giftProof",
          "type": "bytes32[]"
        },
        {
          "internalType": "uint256",
          "name": "id",
          "type": "uint256"
        }
      ],
      "name": "claim",
      "outputs": [],
      "stateMutability": "nonpayable",
      "type": "function"
    },
    {
      "inputs": [],
      "name": "dropAmount",
      "outputs": [
        {
          "internalType": "uint256",
          "name": "",
          "type": "uint256"
        }
      ],
      "stateMutability": "view",
      "type": "function"
    },
    {
      "inputs": [],
      "name": "giftRoot",
      "outputs": [
        {
          "internalType": "bytes32",
          "name": "",
          "type": "bytes32"
        }
      ],
      "stateMutability": "view",
      "type": "function"
    },
    {
      "inputs": [
        {
          "internalType": "bytes32",
          "name": "giftRoot_",
          "type": "bytes32"
        },
        {
          "internalType": "uint256",
          "name": "dropAmount_",
          "type": "uint256"
        }
      ],
      "name": "initialize",
      "outputs": [],
      "stateMutability": "nonpayable",
      "type": "function"
    },
    {
      "inputs": [
        {
          "internalType": "address",
          "name": "account",
          "type": "address"
        },
        {
          "internalType": "address",
          "name": "operator",
          "type": "address"
        }
      ],
      "name": "isApprovedForAll",
      "outputs": [
        {
          "internalType": "bool",
          "name": "",
          "type": "bool"
        }
      ],
      "stateMutability": "view",
      "type": "function"
    },
    {
      "inputs": [
        {
          "internalType": "address",
          "name": "from",
          "type": "address"
        },
        {
          "internalType": "address",
          "name": "to",
          "type": "address"
        },
        {
          "internalType": "uint256[]",
          "name": "ids",
          "type": "uint256[]"
        },
        {
          "internalType": "uint256[]",
          "name": "amounts",
          "type": "uint256[]"
        },
        {
          "internalType": "bytes",
          "name": "data",
          "type": "bytes"
        }
      ],
      "name": "safeBatchTransferFrom",
      "outputs": [],
      "stateMutability": "nonpayable",
      "type": "function"
    },
    {
      "inputs": [
        {
          "internalType": "address",
          "name": "from",
          "type": "address"
        },
        {
          "internalType": "address",
          "name": "to",
          "type": "address"
        },
        {
          "internalType": "uint256",
          "name": "id",
          "type": "uint256"
        },
        {
          "internalType": "uint256",
          "name": "amount",
          "type": "uint256"
        },
        {
          "internalType": "bytes",
          "name": "data",
          "type": "bytes"
        }
      ],
      "name": "safeTransferFrom",
      "outputs": [],
      "stateMutability": "nonpayable",
      "type": "function"
    },
    {
      "inputs": [
        {
          "internalType": "address",
          "name": "operator",
          "type": "address"
        },
        {
          "internalType": "bool",
          "name": "approved",
          "type": "bool"
        }
      ],
      "name": "setApprovalForAll",
      "outputs": [],
      "stateMutability": "nonpayable",
      "type": "function"
    },
    {
      "inputs": [
        {
          "internalType": "bytes4",
          "name": "interfaceId",
          "type": "bytes4"
        }
      ],
      "name": "supportsInterface",
      "outputs": [
        {
          "internalType": "bool",
          "name": "",
          "type": "bool"
        }
      ],
      "stateMutability": "view",
      "type": "function"
    },
    {
      "inputs": [
        {
          "internalType": "uint256",
          "name": "",
          "type": "uint256"
        }
      ],
      "name": "uri",
      "outputs": [
        {
          "internalType": "string",
          "name": "",
          "type": "string"
        }
      ],
      "stateMutability": "view",
      "type": "function"
    }
  ],
  "bytecode": "0x608060405234801562000010575f80fd5b5060408051602081019091525f81526200002a8162000031565b50620001ab565b60036200003f8282620000e3565b5050565b634e487b7160e01b5f52604160045260245ffd5b600181811c908216806200006c57607f821691505b6020821081036200008b57634e487b7160e01b5f52602260045260245ffd5b50919050565b601f821115620000de575f81815260208120601f850160051c81016020861015620000b95750805b601f850160051c820191505b81811015620000da57828155600101620000c5565b5050505b505050565b81516001600160401b03811115620000ff57620000ff62000043565b620001178162000110845462000057565b8462000091565b602080601f8311600181146200014d575f8415620001355750858301515b5f19600386901b1c1916600185901b178555620000da565b5f85815260208120601f198616915b828110156200017d578886015182559484019460019091019084016200015c565b50858210156200019b57878501515f19600388901b60f8161c191681555b5050505050600190811b01905550565b61194280620001b95f395ff3fe608060405234801561000f575f80fd5b50600436106100ce575f3560e01c80634e1273f41161007d578063e491736f11610058578063e491736f146101b8578063e985e9c5146101c1578063f242432a146101fc575f80fd5b80634e1273f41461016c5780635b36c66b1461018c578063a22cb465146101a5575f80fd5b80630e89341c116100ad5780630e89341c146101245780632eb2c2d6146101445780633b43935114610159575f80fd5b8062fdd58e146100d257806301ffc9a7146100f857806305748be21461011b575b5f80fd5b6100e56100e03660046111de565b61020f565b6040519081526020015b60405180910390f35b61010b61010636600461121e565b6102bb565b60405190151581526020016100ef565b6100e560055481565b610137610132366004611239565b610355565b6040516100ef9190611293565b6101576101523660046113e7565b6103e7565b005b61015761016736600461148a565b610489565b61017f61017a3660046114fe565b610612565b6040516100ef91906115fc565b61015761019a36600461160e565b600491909155600555565b6101576101b336600461162e565b61074e565b6100e560045481565b61010b6101cf366004611667565b6001600160a01b039182165f90815260026020908152604080832093909416825291909152205460ff1690565b61015761020a366004611698565b61075d565b5f6001600160a01b0383166102915760405162461bcd60e51b815260206004820152602a60248201527f455243313135353a2061646472657373207a65726f206973206e6f742061207660448201527f616c6964206f776e65720000000000000000000000000000000000000000000060648201526084015b60405180910390fd5b505f8181526001602090815260408083206001600160a01b03861684529091529020545b92915050565b5f6001600160e01b031982167fd9b67a2600000000000000000000000000000000000000000000000000000000148061031d57506001600160e01b031982167f0e89341c00000000000000000000000000000000000000000000000000000000145b806102b557507f01ffc9a7000000000000000000000000000000000000000000000000000000006001600160e01b03198316146102b5565b606060038054610364906116f8565b80601f0160208091040260200160405190810160405280929190818152602001828054610390906116f8565b80156103db5780601f106103b2576101008083540402835291602001916103db565b820191905f5260205f20905b8154815290600101906020018083116103be57829003601f168201915b50505050509050919050565b6001600160a01b038516331480610403575061040385336101cf565b6104755760405162461bcd60e51b815260206004820152602e60248201527f455243313135353a2063616c6c6572206973206e6f7420746f6b656e206f776e60448201527f6572206f7220617070726f7665640000000000000000000000000000000000006064820152608401610288565b61048285858585856107f8565b5050505050565b335f9081526006602052604090205460ff16156104e85760405162461bcd60e51b815260206004820152600f60248201527f416c726561647920636c61696d656400000000000000000000000000000000006044820152606401610288565b6040516bffffffffffffffffffffffff193360601b1660208201525f906034016040516020818303038152906040528051906020012090506105608484808060200260200160405190810160405280939291908181526020018383602002808284375f92019190915250506004549150849050610a69565b6105ac5760405162461bcd60e51b815260206004820152600f60248201527f4e6f742057686974656c697374656400000000000000000000000000000000006044820152606401610288565b335f818152600660205260409020805460ff191660011790556005546105d491908490610a7e565b60055460405190815233907fd8138f8a3f377c5259ca548e70e4c2de94f129f5a11036a15b69513cba2b426a9060200160405180910390a250505050565b6060815183511461068b5760405162461bcd60e51b815260206004820152602960248201527f455243313135353a206163636f756e747320616e6420696473206c656e67746860448201527f206d69736d6174636800000000000000000000000000000000000000000000006064820152608401610288565b5f835167ffffffffffffffff8111156106a6576106a66112a5565b6040519080825280602002602001820160405280156106cf578160200160208202803683370190505b5090505f5b8451811015610746576107198582815181106106f2576106f2611730565b602002602001015185838151811061070c5761070c611730565b602002602001015161020f565b82828151811061072b5761072b611730565b602090810291909101015261073f81611758565b90506106d4565b509392505050565b610759338383610a9d565b5050565b6001600160a01b038516331480610779575061077985336101cf565b6107eb5760405162461bcd60e51b815260206004820152602e60248201527f455243313135353a2063616c6c6572206973206e6f7420746f6b656e206f776e60448201527f6572206f7220617070726f7665640000000000000000000000000000000000006064820152608401610288565b6104828585858585610b90565b815183511461086f5760405162461bcd60e51b815260206004820152602860248201527f455243313135353a2069647320616e6420616d6f756e7473206c656e6774682060448201527f6d69736d617463680000000000000000000000000000000000000000000000006064820152608401610288565b6001600160a01b0384166108d35760405162461bcd60e51b815260206004820152602560248201527f455243313135353a207472616e7366657220746f20746865207a65726f206164604482015264647265737360d81b6064820152608401610288565b335f5b84518110156109fb575f8582815181106108f2576108f2611730565b602002602001015190505f85838151811061090f5761090f611730565b6020908102919091018101515f8481526001835260408082206001600160a01b038e1683529093529190912054909150818110156109a25760405162461bcd60e51b815260206004820152602a60248201527f455243313135353a20696e73756666696369656e742062616c616e636520666f60448201526939103a3930b739b332b960b11b6064820152608401610288565b5f8381526001602090815260408083206001600160a01b038e8116855292528083208585039055908b168252812080548492906109e0908490611770565b92505081905550505050806109f490611758565b90506108d6565b50846001600160a01b0316866001600160a01b0316826001600160a01b03167f4a39dc06d4c0dbc64b70af90fd698a233a518aa5d07e595d983b8c0526c8f7fb8787604051610a4b929190611783565b60405180910390a4610a61818787878787610d3b565b505050505050565b5f82610a758584610ee8565b14949350505050565b610a9883828460405180602001604052805f815250610f2c565b505050565b816001600160a01b0316836001600160a01b031603610b245760405162461bcd60e51b815260206004820152602960248201527f455243313135353a2073657474696e6720617070726f76616c2073746174757360448201527f20666f722073656c6600000000000000000000000000000000000000000000006064820152608401610288565b6001600160a01b038381165f81815260026020908152604080832094871680845294825291829020805460ff191686151590811790915591519182527f17307eab39ab6107e8899845ad3d59bd9653f200f220920489ca2b5937696c31910160405180910390a3505050565b6001600160a01b038416610bf45760405162461bcd60e51b815260206004820152602560248201527f455243313135353a207472616e7366657220746f20746865207a65726f206164604482015264647265737360d81b6064820152608401610288565b335f610bff85611050565b90505f610c0b85611050565b90505f8681526001602090815260408083206001600160a01b038c16845290915290205485811015610c925760405162461bcd60e51b815260206004820152602a60248201527f455243313135353a20696e73756666696369656e742062616c616e636520666f60448201526939103a3930b739b332b960b11b6064820152608401610288565b5f8781526001602090815260408083206001600160a01b038d8116855292528083208985039055908a16825281208054889290610cd0908490611770565b909155505060408051888152602081018890526001600160a01b03808b16928c821692918816917fc3d58168c5ae7397731d063d5bbf3d657854427343f4c083240f7aacaa2d0f62910160405180910390a4610d30848a8a8a8a8a611099565b505050505050505050565b6001600160a01b0384163b15610a615760405163bc197c8160e01b81526001600160a01b0385169063bc197c8190610d7f90899089908890889088906004016117b0565b6020604051808303815f875af1925050508015610db9575060408051601f3d908101601f19168201909252610db69181019061180d565b60015b610e6e57610dc5611828565b806308c379a003610dfe5750610dd9611841565b80610de45750610e00565b8060405162461bcd60e51b81526004016102889190611293565b505b60405162461bcd60e51b815260206004820152603460248201527f455243313135353a207472616e7366657220746f206e6f6e2d4552433131353560448201527f526563656976657220696d706c656d656e7465720000000000000000000000006064820152608401610288565b6001600160e01b0319811663bc197c8160e01b14610edf5760405162461bcd60e51b815260206004820152602860248201527f455243313135353a204552433131353552656365697665722072656a656374656044820152676420746f6b656e7360c01b6064820152608401610288565b50505050505050565b5f81815b845181101561074657610f1882868381518110610f0b57610f0b611730565b6020026020010151611194565b915080610f2481611758565b915050610eec565b6001600160a01b038416610fa85760405162461bcd60e51b815260206004820152602160248201527f455243313135353a206d696e7420746f20746865207a65726f2061646472657360448201527f73000000000000000000000000000000000000000000000000000000000000006064820152608401610288565b335f610fb385611050565b90505f610fbf85611050565b90505f8681526001602090815260408083206001600160a01b038b16845290915281208054879290610ff2908490611770565b909155505060408051878152602081018790526001600160a01b03808a16925f92918716917fc3d58168c5ae7397731d063d5bbf3d657854427343f4c083240f7aacaa2d0f62910160405180910390a4610edf835f89898989611099565b6040805160018082528183019092526060915f91906020808301908036833701905050905082815f8151811061108857611088611730565b602090810291909101015292915050565b6001600160a01b0384163b15610a615760405163f23a6e6160e01b81526001600160a01b0385169063f23a6e61906110dd90899089908890889088906004016118ca565b6020604051808303815f875af1925050508015611117575060408051601f3d908101601f191682019092526111149181019061180d565b60015b61112357610dc5611828565b6001600160e01b0319811663f23a6e6160e01b14610edf5760405162461bcd60e51b815260206004820152602860248201527f455243313135353a204552433131353552656365697665722072656a656374656044820152676420746f6b656e7360c01b6064820152608401610288565b5f8183106111ae575f8281526020849052604090206111bc565b5f8381526020839052604090205b9392505050565b80356001600160a01b03811681146111d9575f80fd5b919050565b5f80604083850312156111ef575f80fd5b6111f8836111c3565b946020939093013593505050565b6001600160e01b03198116811461121b575f80fd5b50565b5f6020828403121561122e575f80fd5b81356111bc81611206565b5f60208284031215611249575f80fd5b5035919050565b5f81518084525f5b8181101561127457602081850181015186830182015201611258565b505f602082860101526020601f19601f83011685010191505092915050565b602081525f6111bc6020830184611250565b634e487b7160e01b5f52604160045260245ffd5b601f8201601f1916810167ffffffffffffffff811182821017156112df576112df6112a5565b6040525050565b5f67ffffffffffffffff8211156112ff576112ff6112a5565b5060051b60200190565b5f82601f830112611318575f80fd5b81356020611325826112e6565b60405161133282826112b9565b83815260059390931b8501820192828101915086841115611351575f80fd5b8286015b8481101561136c5780358352918301918301611355565b509695505050505050565b5f82601f830112611386575f80fd5b813567ffffffffffffffff8111156113a0576113a06112a5565b6040516113b7601f8301601f1916602001826112b9565b8181528460208386010111156113cb575f80fd5b816020850160208301375f918101602001919091529392505050565b5f805f805f60a086880312156113fb575f80fd5b611404866111c3565b9450611412602087016111c3565b9350604086013567ffffffffffffffff8082111561142e575f80fd5b61143a89838a01611309565b9450606088013591508082111561144f575f80fd5b61145b89838a01611309565b93506080880135915080821115611470575f80fd5b5061147d88828901611377565b9150509295509295909350565b5f805f6040848603121561149c575f80fd5b833567ffffffffffffffff808211156114b3575f80fd5b818601915086601f8301126114c6575f80fd5b8135818111156114d4575f80fd5b8760208260051b85010111156114e8575f80fd5b6020928301989097509590910135949350505050565b5f806040838503121561150f575f80fd5b823567ffffffffffffffff80821115611526575f80fd5b818501915085601f830112611539575f80fd5b81356020611546826112e6565b60405161155382826112b9565b83815260059390931b8501820192828101915089841115611572575f80fd5b948201945b8386101561159757611588866111c3565b82529482019490820190611577565b965050860135925050808211156115ac575f80fd5b506115b985828601611309565b9150509250929050565b5f8151808452602080850194508084015f5b838110156115f1578151875295820195908201906001016115d5565b509495945050505050565b602081525f6111bc60208301846115c3565b5f806040838503121561161f575f80fd5b50508035926020909101359150565b5f806040838503121561163f575f80fd5b611648836111c3565b91506020830135801515811461165c575f80fd5b809150509250929050565b5f8060408385031215611678575f80fd5b611681836111c3565b915061168f602084016111c3565b90509250929050565b5f805f805f60a086880312156116ac575f80fd5b6116b5866111c3565b94506116c3602087016111c3565b93506040860135925060608601359150608086013567ffffffffffffffff8111156116ec575f80fd5b61147d88828901611377565b600181811c9082168061170c57607f821691505b60208210810361172a57634e487b7160e01b5f52602260045260245ffd5b50919050565b634e487b7160e01b5f52603260045260245ffd5b634e487b7160e01b5f52601160045260245ffd5b5f6001820161176957611769611744565b5060010190565b808201808211156102b5576102b5611744565b604081525f61179560408301856115c3565b82810360208401526117a781856115c3565b95945050505050565b5f6001600160a01b03808816835280871660208401525060a060408301526117db60a08301866115c3565b82810360608401526117ed81866115c3565b905082810360808401526118018185611250565b98975050505050505050565b5f6020828403121561181d575f80fd5b81516111bc81611206565b5f60033d111561183e5760045f803e505f5160e01c5b90565b5f60443d101561184e5790565b6040516003193d81016004833e81513d67ffffffffffffffff816024840111818411171561187e57505050505090565b82850191508151818111156118965750505050505090565b843d87010160208285010111156118b05750505050505090565b6118bf602082860101876112b9565b509095945050505050565b5f6001600160a01b03808816835280871660208401525084604083015283606083015260a0608083015261190160a0830184611250565b97965050505050505056fea2646970667358221220b4a18476fc0cf0a2c1b315a6c5b8b1125ffcc5f43dce4d4c762bd6c4d216782864736f6c63430008140033",
  "linkReferences": {},
  "deployedLinkReferences": {}
}